:020000040800F2
:100000009804002045010008450800084108000840
:1000100043080008850300082114000800000000C0
:10002000000000000000000000000000E10C0008DB
:10003000870300080000000045090008390E000889
:100040005F0100085F0100085F0100085F01000810
:100050005F0100085F0100085F0100085F01000800
:1000600099030008ED0300085F0100085F01000824
:100070005F0100085F0100085F0100085F010008E0
:100080005F0100085F0100085F0100085F010008D0
:100090005F0100085F0100085F0100085F010008C0
:1000A0005F0100085F0100085F0100085F010008B0
:1000B000050F00085F0100085F0100085F010008EC
:1000C0005F0100085F0100085F0100085F01000890
:1000D0005F0100085F0100085F0100085F01000880
:1000E0005F0100085F0100085F0100085F01000870
:1000F0005F0100085F0100085F0100085F01000860
:100100005F0100085F0100085F0100085F0100084F
:100110005F0100085F010008090F00085F01000887
:100120005F0100085F0100085F0100085F0100082F
:10013000DFF80CD000F014F900480047E51900087A
:10014000980400200648804706480047FEE7FEE77F
:10015000FEE7FEE7FEE7FEE7FEE7FEE7FEE7FEE777
:10016000C50E000831010008F0B480EA0102D20F88
:100170004300B3EB410F02D20346084619464B0039
:1001800042D0C30DDDB2C1F3C7542C1B202C35DA8D
:10019000C1F3160141F4000502B16D42C4F120061D
:1001A00005FA06F125412844B3EBD05F23D0C2B154
:1001B000012CA0EBC35009DCF0BC4FF0004202EA76
:1001C000C35200F50000DBB200F09CB8400000F123
:1001D000807000EBC350A0F1807040EAD1704900FC
:1001E00009E0490841EAC071A0EBC35000F50000E6
:1001F000400800EBC350F0BC00F07BB85142012333
:1002000003EB4101801AF6E7F0BC704781F0004132
:10021000AAE780F00040A7E780EA010210B502F0EB
:100220000042400001D04B0001D1002010BD4FEA38
:10023000106101EB1361C0F35600C3F3560340F4A1
:10024000000043F40003A0FB0330A1F17F014FEA5B
:1002500000401C0401D000F1010050EA134001D419
:100260004000491EC3B20C0604EBD010401C4008ED
:10027000802B01D120F00100002900DA002010437A
:1002800010BDC10F80EAE0700844CA079623002120
:1002900000F038B800F0004220F00040C10DC0F37B
:1002A000160040F400007F2901DA002070479629EB
:1002B00003DCC1F19601C84001E096398840002A6C
:1002C000F4D04042704730B50B4601460020202252
:1002D000012409E021FA02F59D4205D303FA02F553
:1002E000491B04FA02F52844151EA2F10102F1DCB3
:1002F00030BD0029A8BF7047401C490008BF20F04E
:100300000100704710B4B0FA80FC00FA0CF050EA1B
:10031000010404BF10BC704749B1CCF1200421FA9C
:1003200004F411FA0CF118BF012121430843A3EB97
:100330000C01CB1D4FEA00614FEA102042BF0020A4
:1003400010BC704700EBC35010440029A4BF10BC80
:100350007047401C490008BF20F0010010BC7047E6
:10036000064C074D06E0E06840F0010394E8070002
:1003700098471034AC42F6D3FFF7DEFE941E000817
:10038000B41E0008FEE7704702494861486900282A
:10039000FCD170470000002010B5042000F05CF88C
:1003A00001281BD1042000F04BF8042000F04EF887
:1003B0000B4C1021A088401CA0800A4800F034FAA1
:1003C00000280949207804D1401C20700868401E8C
:1003D00003E0401E20700868401C086010BD00004B
:1003E00050000020001001400C00002010B5082033
:1003F00000F032F801281BD1082000F021F8082075
:1004000000F024F80B4C0221E088401CE0800A48F0
:1004100000F00AFA00280949607804D1401C607095
:100420000868401C03E0401E60700868401E0860B9
:1004300010BD000050000020000C01401000002002
:100440000149086070470000140401400149086038
:100450007047000014040140064B01461A68002052
:100460005B6902EA01020B4202D0002A00D001209F
:10047000704700000004014030B51F4A81790368CD
:1004800099B311460C6824EA03040C604B680468B5
:1004900023EA04034B60047904EB02031C6805683B
:1004A00044EA05041C608B68046823EA04038B603B
:1004B000CB68046823EA0403CB604379A1F580612B
:1004C000102B0CD101F581610A68036842EA03022E
:1004D0000A604A68006842EA00024A6030BD991822
:1004E0000A68006802430A6030BDFFE700791044E3
:1004F000016899430160F7E70004014004490A6874
:1005000022F010020A600A6802430A607047000085
:1005100000200240034A116801F0380101431160D4
:1005200070470000002002402DE9FE4F4FF4806824
:10053000ADF8088004258DF80B5002A96D4800F035
:10054000F7F84FF40079ADF8089003248DF80A40CD
:1005500018268DF80B6002A9664800F0E9F8C02063
:10056000ADF808008DF80A408DF80B6002A96148CB
:1005700000F0DEF83027ADF808708DF80A4010263C
:100580008DF80B6002A95B4800F0D2F8ADF8087056
:100590008DF80A408DF80B6002A9564800F0C8F8A3
:1005A0000220ADF80800DFF850A18DF80B508DF84F
:1005B0000A4002A9504600F0BBF8DFF840B1082716
:1005C000ADF8087002A9584600F0B2F8ADF808601E
:1005D00002A9584600F0ACF8ADF8085002A9484806
:1005E00000F0A6F80121084600F08EF80321022051
:1005F00000F08AF80421022000F086F8022103208E
:1006000000F082F81E20009000208DF804008DF884
:10061000057001208DF806006846FFF72DFFE00207
:10062000ADF8080048258DF80B508DF80A4002A956
:10063000304800F07DF844F2C000ADF808008DF8B5
:100640000B508DF80A4002A9504600F071F8E020E6
:10065000ADF808008DF80B508DF80A4002A95846F5
:1006600000F066F8F002ADF808008DF80B508DF838
:100670000A4002A9504600F05BF87002ADF808008D
:100680008DF80B508DF80A4002A91A4800F050F876
:1006900001211C4800F09CF84CF20110ADF8080054
:1006A0008DF80A408DF80B5002A9124800F040F86E
:1006B0004FF47060ADF808008DF80A408DF80B60BB
:1006C00002A9584600F034F801221102584600F001
:1006D000B2F801224946584600F0ADF801224146E1
:1006E000584600F0A8F80122D102584600F0A3F8BD
:1006F000BDE8FE8F00080140000C014000100140E1
:10070000001401400004300010B58A0721F00304F2
:100710000649120F21440F238C6893409C438C6040
:100720008B68904003438B6010BD000000000140C7
:10073000F0B5CB780022DC0603F00F0301D58C78EE
:1007400023430C884FF00F0C14F0FF0F4FF0010EF5
:100750001AD006680D880EFA02F42540A5420FD182
:1007600095000CFA05F726EA070703FA05F6CD7897
:100770003E43282D01D1446102E0482D00D104619F
:10078000521C082AE6D306600A88FF2A1ED946684A
:100790005FF0000202F108050EFA05F40D8825400D
:1007A000A5420FD195000CFA05F726EA070703FAD0
:1007B00005F6CD783E43282D00D14461CD78482DF3
:1007C00000D10461521C082AE4D34660F0BD000049
:1007D000F0B5144C002801DAE36900E06368450DC8
:1007E0002E0185B2C0F30157B540C0F30342032F79
:1007F00006D123F07062636823F07063636008E0E1
:10080000C60203D503269640B34300E0AB4343F052
:10081000706201B12A43002801DAE261F0BD626032
:10082000F0BD0000000001400246926800200A422C
:1008300000D0012070470AB10161704741617047E3
:10084000FEE7FEE7704738B54FF4E06000F070F85F
:1008500009208DF8000000248DF801408DF8024039
:1008600001258DF80350684600F034F807208DF814
:1008700000008DF801408DF802408DF80340684675
:1008800000F028F808208DF8000004208DF8010001
:100890008DF802008DF80350684600F01BF80A201E
:1008A0008DF800008DF801408DF802408DF803406E
:1008B000684600F00FF836208DF8000005208DF80E
:1008C000010006208DF802008DF80350684600F004
:1008D00001F838BDF0B50F23C47801784FF0E0225D
:1008E0000127E4B1D2F80C4D867804F4E064C4F535
:1008F000E064240AC4F10405E34044781E40AC409F
:1009000026433301114481F800340078410900F096
:100910001F0002EB81018740C1F80071F0BD01F0BA
:100920001F008740480902EB8000C0F88071F0BDCD
:100930000249084302490860704700000000FA05B8
:100940000CED00E070470000034A516821F440417B
:10095000014351607047000000100240044A002922
:10096000D16901D0014300E08143D16170470000AB
:1009700000100240044A0029916901D0014300E0BF
:1009800081439161704700000010024010B500F0F3
:1009900059F84FF48034204600F0E8F800F02EF9C2
:1009A000012825D11020FFF7A9FD0220FFF7B2FD95
:1009B000002000F0D1F8002000F0FCF8A01100F0B9
:1009C000EFF86010FFF7C0FF4FF4E011204600F091
:1009D00001F9012000F0F8F8392000F09DF8002816
:1009E000FAD0022000F000F900F0AEF80828FBD1A0
:1009F00001211220FFF7B2FF01219D20FFF7BAFF6E
:100A000001218803FFF7B6FF0C484FF47A710068A4
:100A1000B0FBF1F0B0F1807F0FD220F07F41491E92
:100A20004FF0E0204161064AF02111704FF00001C3
:100A300081614FF00701016110BDFEE77C000020DD
:100A400023ED00E00C48016841F0010101604168BC
:100A50000A4A114041600168094A11400160016879
:100A600021F48021016042684FF41F0122F4FE024C
:100A70004260816070470000001002400000FFF8F3
:100A8000FFFFF6FE10B5204A5168204B11F00C0113
:100A900003D0042901D0082901D0036011E0516876
:100AA0005368022401F4701104EB914113F4803F68
:100AB00002D053689B0301D5154B00E0134B5943FB
:100AC00001605168134B01F0F00109095C5C016899
:100AD000E1404160546804F4E064240A1C5D21FA9A
:100AE00004F48460546804F46054E40A1B5DD94043
:100AF000C1605268074B02F44042920B1B1F9A5C84
:100B0000B1FBF2F1016110BD0010024000127A0049
:100B100000093D006C000020034600205909094AE5
:100B2000012901D1116804E0022901D1116A00E014
:100B3000516A03F01F02012393400B4200D00120B1
:100B400070470000001002400248406800F00C00AE
:100B50007047000000100240034A516821F0F00184
:100B60000143516070470000001002400B490A68C1
:100B700022F480320A600A68B0F5803F22F48022B5
:100B80000A6007D0B0F5802F03D1086840F4A02098
:100B900008607047086840F48030F9E700100240B0
:100BA000034A516821F4E06101435160704700003D
:100BB00000100240034A516821F4605141EAC0002C
:100BC00050607047001002400149086670470000FD
:100BD00000004242034B5A68084322F47C1210433F
:100BE0005860704700100240034A516821F0030129
:100BF00001435160704700000010024030B50024EE
:100C00004FF4A0653120FFF787FF641CAC4201D090
:100C10000028F7D03120FFF77FFF002800D0012007
:100C200030BD00002DE9F041134D4FF4006128461E
:100C3000FFF7FAFD0446A9142846FFF7F5FD0F4F0C
:100C4000054640213846FFF7EFFD0646802138462D
:100C5000FFF7EAFD80464FF480413846FFF7E4FD98
:100C60000146B30004EB450203EBC800024402EB6B
:100C70000110BDE8F081000000080140000C0140B7
:100C80002DE9F041154F054600244FF480562246C9
:100C900031463846FFF7CFFD4FF400680022314659
:100CA0003846FFF7C8FD280601D5012200E00022E2
:100CB00041463846FFF7BFFD012231463846FFF76F
:100CC000BAFD6806050E641C082CE7D33146384689
:100CD000BDE8F0410022FFF7AEBD0000000C01406E
:100CE00070470000214900200A6842F480320A60FF
:100CF0004FF4A0630A68401C12F4003F01D19842EF
:100D0000F8D10868800330D51948026842F0100213
:100D10000260026822F003020260026842F00202EE
:100D200002604868486048684860486840F48060ED
:100D30004860486820F47C104860486840F4E81037
:100D40004860086840F08070086008688001FCD541
:100D5000486820F003004860486840F0020048609E
:100D60004868C0F381000228FAD1704700100240A1
:100D7000002002402DE9FF41051E4FF06000ADF854
:100D800000004FF00100ADF802004FF00000DFF866
:100D9000A080284E0C46ADF8080044F620670ADB18
:100DA000012220214046FFF746FD684200EB80000B
:100DB00007EB800008E06D42002220214046FFF74B
:100DC0003AFD05EB85008000ADF806006946304627
:100DD00000F0FCF9002C08DB002210214046FFF750
:100DE0002AFD04EB840080000AE064420122102105
:100DF0004046FFF720FD604200EB800007EB8000DB
:100E0000ADF806006946304600F09AF908213046F0
:100E100000F0D6F90821304600F016FA01213046DC
:100E200000F02EF90121304600F037F9BDE8FF81CE
:100E300000080140000400402DE9F04100F05AFA9A
:100E40001B481C4B82781C4C511C81700021052AC8
:100E500013D9B0F9062093F900506A434261B0F902
:100E6000045094F9006075436D4205618180134E12
:100E7000C1803260124A1560817090F9002001250E
:100E8000AE1E6FF01307142A01DB257002E0BA4290
:100E900001DC2670017090F90120142A01DB1D701D
:100EA00002E0BA4201DC1E704170BDE8F081000032
:100EB0005000002019000020180000203C000020F5
:100EC000380000200C48016841F0010101604168D0
:100ED0000A4A114041600168094A114001600168F5
:100EE00021F480210160416821F4FE0141604FF44A
:100EF0001F018160FFF7F6BE001002400000FFF8FE
:100F0000FFFFF6FE704700002DE9F0474B4C012132
:100F1000204600F001F901287BD10121204600F094
:100F2000B9F847480078002873D0464C2069FFF78D
:100F3000A8F905464448B0F90000FFF7A2F9294690
:100F4000FFF764F9414906460860014640480068D9
:100F5000FFF762F9E168FFF707F9DFF8F880E06072
:100F600005463046D8F80010FFF750F93A490968AD
:100F7000FFF752F90746394831460068FFF74CF948
:100F80002946FFF7F1F83946FFF7EEF8FFF782F947
:100F9000334D07B22F80C8F800606069FFF771F920
:100FA00006463048B0F90000FFF76BF93146FFF70D
:100FB0002DF92D498046086001462C480068FFF74E
:100FC0002BF9A168FFF7D0F8A060294C06464046EF
:100FD0002168FFF71BF927490968FFF71DF98146CA
:100FE000254841460068FFF717F93146FFF7BCF87E
:100FF0004946FFF7B9F8FFF74DF901B21F4A4FF420
:101000007A7011804342C4F80080874202DD288054
:1010100003E011E09F4200DA2B80814201DD108065
:1010200002E0994200DA1380B2F90010B5F900002D
:10103000BDE8F047FFF79EBEBDE8F0870010004016
:101040000000002050000020080000204800002080
:10105000240000204C000020280000202000002058
:101060001C0000200600002040000020300000206E
:1010700044000020340000202C0000201A00002032
:101080000029018802D041F0800101E021F08001B7
:1010900001807047C943018270470029018802D04E
:1010A00041F0010101E021F00101018070470000E1
:1010B0003EB544F62060ADF804001420ADF8000001
:1010C0000024ADF80640ADF802406946104800F033
:1010D000C3F847F27F00ADF804000520ADF800002A
:1010E000ADF8024002200B4CADF8060069462046E0
:1010F00000F0B2F801212046FFF7C2FF012211469D
:10110000204600F015F801212046FFF7C6FF3EBD3E
:1011100000040040001000400246138A002092891B
:101120000B4202EA010202D0002A00D001207047DF
:10113000002A828901D00A4300E08A4382817047F5
:10114000F0B5028C22F001020284048C8288038BA9
:1011500024F0020523F073060B880C8933434E8874
:10116000124F2C432643B8420BD0114CA04208D05A
:10117000104CA04205D0104CA04202D00F4CA0420F
:101180000DD126F008044D898E88254325F00405ED
:101190002E4322F440748D89CA8925432A438280D4
:1011A0000383C98881860684F0BD0000002C0140BD
:1011B000003401400040014000440140004801402B
:1011C000028B22F008020A430283704730B5028C7A
:1011D00022F010020284028C8388048B22F0200209
:1011E00024F4E6450C88240645EA14440D892D05AF
:1011F00042EA15454A88120545EA1242104DA842B6
:1012000002D0104DA84215D14D8922F080022D0543
:1012100042EA15458A8825F04005120545EA124242
:101220008D8923F44063AD0443EA1545CB899B04C3
:1012300045EA134383800483C9880187028430BD53
:10124000002C014000340140028B22F4006242EA8B
:10125000012101837047000030B502881B4C1C4DF2
:10126000A0420DD0A8420BD0B0F1804F08D0194B4E
:10127000984205D0184B984202D0184B984203D19F
:1012800022F070034A881A43154B984206D0154B3A
:10129000984203D022F44073CA881A4302808A8895
:1012A000A04282850A8802850AD0A84208D00E4A48
:1012B000904205D00D4A904202D00D4A904201D191
:1012C000097A01860121818230BD0000002C014095
:1012D000003401400004004000080040000C0040C1
:1012E0000010004000140040004001400044014054
:1012F0000048014003484169002902D04169491E64
:1013000041617047000000201FB54FF41650009057
:101310000020ADF80400ADF80600ADF80800ADF807
:101320000C000C20054CADF80A006946204600F080
:1013300019F80121204600F003F81FBD00380140D4
:101340000029818902D041F4005101E021F40051CB
:10135000818170470246128800200A4200D0012095
:101360007047000030B50446008A85B00D464CF643
:10137000FF710840E98801432182A0894EF6F311EC
:101380000840A9882A8911436A8902431143A1812F
:10139000A08A4FF6FF410840A9890143A18268460F
:1013A000FFF770FB1B48844201D1039800E00298CC
:1013B000A1890904002900EBC00101EB0010296894
:1013C00002DA4FEA410101E04FEA8101B0FBF1F09E
:1013D0006422B0FBF2F14FEA01114FEA11136FF0F2
:1013E00018056B43A58900EB83004FF032032D04F1
:1013F00006D503EBC000B0FBF2F000F0070005E0FB
:1014000003EB0010B0FBF2F000F00F000843208166
:1014100005B030BD00380140C1F30801818070473C
:10142000FEE700000FB410B503A9044B044A02986C
:1014300000F0A8F810BC5DF814FB0000F9160008D5
:101440009000002002E008C8121F08C1002AFAD14B
:1014500070477047002001E001C1121F002AFBD134
:10146000704700002DE9F04387B00446142044F68D
:101470002068ADF810000025DFF87090ADF81480FA
:10148000ADF81650ADF8125004A94846FFF7E4FE37
:10149000012617486027002C0DDB01222021FFF7D1
:1014A000CAF96042ADF8007000EB8001ADF802604F
:1014B00008EB81000BE0644200222021FFF7BBF91A
:1014C000ADF8007004EB8400ADF802608000ADF868
:1014D0000600ADF8085069464846FFF777FE01213F
:1014E0004846FFF7DAFD07B0BDE8F083000400408E
:1014F000000801402DE9F04387B00446142044F66B
:101500002068ADF810000025DFF87090ADF8148069
:10151000ADF81650ADF8125004A94846FFF79CFEEE
:10152000174860260127002C0BDB00221021FFF753
:1015300082F9ADF8006004EB8400ADF80270800021
:101540000DE0644201221021FFF775F96042ADF809
:10155000006000EB8001ADF8027008EB8100ADF88F
:101560000600ADF8085069464846FFF7E9FD01213D
:101570004846FFF792FD07B0BDE8F0830004004045
:10158000000801402DE9FF4F89B004469A46002526
:1015900093E025286FD10027641C4E4AB8460121EC
:1015A0002378203B01FA03F0104202D00743641C69
:1015B000F6E720782E281AD114F8010F47F0040717
:1015C0002A280DD10A98641C50F8048B0A900EE06A
:1015D00008EB880002EB400001EB0008641C01E00E
:1015E0006FF02F022178A1F130000928F0D920787E
:1015F000002866D0642809D0692807D0752864D1EE
:101600000A994FF00A0901C90A9116E00A994FF0A8
:101610000A0901C90A91002804DAC0F100004FF05C
:101620002D0102E0390504D52B218DF80010012190
:1016300004E0F90701D02021F7E700218B4609AE2D
:1016400006E04946FEF73FFE01F1300106F8011DB4
:101650000028F6D101A8A0EB060000F120097807C8
:1016600001D44FF001080020C84501DDA8EB0900B6
:101670008046002707E028E01DF8070052460B9936
:1016800090476D1C7F1C5F45F6DB04E0302052461E
:101690000B9990476D1CB8F10000A8F10108F5DC2A
:1016A00005E016F8010B52460B9990476D1CB9F1F5
:1016B0000000A9F10109F4DC641C207800287FF403
:1016C00068AF28460DB0BDE8F08F52460B999047A1
:1016D0006D1CF1E7092801004FF4E171484200F068
:1016E0001FBA40F2B631484200F01ABA01494842E6
:1016F00000F016BA3EFEFFFF70B5074D0446C1B2BA
:101700002846FFF789FE40212846FFF723FE0028E0
:10171000F9D0204670BD0000003801402DE9F84F97
:1017200001210820FFF726F903248DF80240102537
:10173000DFF840B18DF803504FF48078ADF80080A9
:1017400069465846FEF7F4FF01210820FFF712F919
:101750008DF802408DF803506F01ADF800706946B6
:101760005846FEF7E5FF01210820FFF703F98DF841
:1017700002408DF803504FF4806AADF800A069462E
:101780005846FEF7D5FF01210820FFF7F3F88DF842
:1017900002408DF803504FF40059ADF800906946AF
:1017A0005846FEF7C5FF01210820FFF7E3F88DF842
:1017B00002408DF803502E02ADF80060694658468D
:1017C000FEF7B6FF01210820FFF7D4F88DF802409C
:1017D0008DF80350E801ADF8000069465846FEF761
:1017E000A7FF002231465846FFF725F80022394668
:1017F0005846FFF720F8012239465846FFF71BF8F4
:10180000012251465846FFF716F80122494658462C
:10181000FFF711F8002241465846FFF70CF800F098
:101820007BF800F05BF80021084600F068F80E2114
:1018300011A000F095F80E2113A000F091F80E21F0
:1018400015A000F08DF80E2117A000F089F80E21E8
:1018500019A000F085F80E211BA000F081F80022ED
:1018600049465846FEF7E7FF1B48401EFDD1BDE83C
:10187000F88F0000000C01402020524F424F5420AE
:10188000434C5542202000002020454E47494E45FC
:101890004552494E4720000020202020694E65789F
:1018A000757320202020000041726520796F75201B
:1018B00052656164793F000057652077696C6C2040
:1018C000676F742069740000476F20476F20476F6F
:1018D00020476F20476F000080841E0070B50024F1
:1018E000802000F061F8402000F05EF84FF4FC75B5
:1018F000002000F069F8641CAC42F9D370BD10B54B
:1019000080300C46C0B200F04FF84034E0B2BDE881
:10191000104000F049B8000070B5104D4FF400744D
:10192000002221462846FEF786FF0122214628464E
:10193000FEF781FF212000F037F8A62000F034F8F0
:10194000072000F031F8132000F02EF8202000F0DE
:101950002BF8BDE870400C2000F026B8000C0140C8
:1019600070B505460E46002404E0285D00F006F838
:10197000641CE4B2B442F8D370BD000070B500241A
:101980002038084E00EB8005705D00F01DF8641CE7
:10199000E4B26D1C052CF7D3BDE87040002000F0C8
:1019A00013B80000B81C000810B5044600224FF41C
:1019B00080610448FEF73FFF2046BDE81040FFF776
:1019C0005FB90000000C014010B5044601229102ED
:1019D0000348FEF730FF2046BDE81040FFF750B93E
:1019E000000C01402DE9F05FFEF7D0FFFEF79CFDF3
:1019F000FFF78AFCFFF75CFBFFF790FE37A0FFF7CD
:101A000011FDFFF76BFFFFF769FF3220FEF7BCFC0B
:101A1000FEF719FF384C4FF4804529462046FEF763
:101A200003FF0028F9D14FF4FA752846FEF7ACFC05
:101A30004FF400664FF4807A4FF4806B4FF4004906
:101A4000DFF8B8805FEAA607FFF7ECF801462CA0A4
:101A5000FFF7E8FC9621084600F05AF801212046DD
:101A6000FEF7E2FE50B9002231464046FEF7E3FEA3
:101A70002846FEF789FCFFF72FFE04E001223146DD
:101A80004046FEF7D8FE51462046FEF7CDFE50B93F
:101A9000002259464046FEF7CEFE2846FEF774FC6B
:101AA000FFF724FE04E0012259464046FEF7C3FE3C
:101AB00049462046FEF7B8FE50B900223946404656
:101AC000FEF7B9FE2846FEF75FFCFFF70AFEBBE70C
:101AD000012239464046FEF7AEFEB5E70A0A0D6917
:101AE0004E6578757320526F626F7420436F6E7409
:101AF000657374200A0D00000008014000100140C9
:101B000053454E534F52202564200A0D000000001B
:101B1000024A012313701081D18070470000002019
:101B20002DE9F04F8DB04FF000085A4C5A4A4FF053
:101B30007E53CDE90824CDE90683CDE90324574A35
:101B4000029382F80080C2F80C80800000B2C2F8D4
:101B500010800A90880000B205904FF47A70C34656
:101B6000C146506192460A98DAF80C105446401A61
:101B700006B23046FEF785FB0C900899FEF74CFB49
:101B800005465846FEF77DFB2946FEF7EDFAFEF7BF
:101B900081FB0FFA80FBA6EB0800FEF772FB0799AA
:101BA000FEF73AFB05465846FEF76BFB07460999D8
:101BB0000C98FEF731FB3946FEF7D6FA2946FEF7B8
:101BC000D3FAFEF767FB05B205982169B046401AC3
:101BD00007B23846FEF755FB0B900399FEF71CFB46
:101BE00004460698FEF74DFB2146FEF7BDFAFEF7C8
:101BF00051FB00B20690A7EB0900FEF742FB0299E9
:101C0000FEF70AFB81460698FEF73BFB0446049963
:101C10000B98FEF701FB2146FEF7A6FA4946FEF7B0
:101C2000A3FAFEF737FB04B24FF4C870B9468542F9
:101C300001DD054603E01A498D4200DA0D46844273
:101C400002DC1748844200DA04462846FFF70AFC03
:101C50002046FFF74FFC3B462A46314611A0009430
:101C6000FFF7E0FB0F361F2E02D20F371F2F04D3D2
:101C7000DAF8140000287FF476AF0020CAF80C00D0
:101C8000CAF81000FFF736FC0DB0BDE8F04F002099
:101C9000FFF7E8BB9A99993F17B7D13800000020A9
:101CA00070FEFFFF2564203A202564202C20256447
:101CB000203A2025640A0D00000000000000002FDB
:101CC00000000007000700147F147F14242A7F2AD5
:101CD00012626408132336495522500005030000A0
:101CE000001C2241000041221C0014083E08140878
:101CF000083E08080000A060000808080808006006
:101D000060000020100804023E5149453E00427F19
:101D1000400042615149462141454B311814127F20
:101D20001027454545393C4A4949300171090503A9
:101D30003649494936064949291E00363600000011
:101D400056360000081422410014141414140041E3
:101D50002214080201510906324959513E7C1211E0
:101D6000127C7F494949363E414141227F4141220F
:101D70001C7F494949417F090909013E4149497A86
:101D80007F0808087F00417F41002040413F017FDC
:101D9000081422417F404040407F020C027F7F04B4
:101DA00008107F3E4141413E7F090909063E4151ED
:101DB000215E7F09192946464949493101017F01C0
:101DC000013F4040403F1F2040201F3F4038403FE0
:101DD00063140814630708700807615149454300FC
:101DE0007F414100552A552A550041417F00040298
:101DF00001020440404040400001020400205454CD
:101E000054787F4844443838444444203844444853
:101E10007F3854545418087E09010218A4A4A47CE5
:101E20007F0804047800447D40004080847D007F6A
:101E30001028440000417F40007C041804787C088E
:101E40000404783844444438FC24242418182424F6
:101E500018FC7C080404084854545420043F4440AF
:101E6000203C4040207C1C2040201C3C4030403C1A
:101E700044281028441CA0A0A07C4464544C440076
:101E80000836410000007F000000413608000810BD
:101E900008040800B41E00080000002094000000A0
:101EA00044140008481F00089400002004040000A7
:101EB000541400080000140014000000000000008A
:101EC0000000000000000000000000000000000012
:101ED0000000000000008040EC51B83D0000F041DF
:101EE0000000A041000000400000A04100000000F0
:101EF00000000000000000000000000000000000E2
:101F000000000000000000000000000000000000D1
:101F100000000000000000000000000002040608AD
:101F2000000000000102030401020304060708097F
:101F300000A24A04000000000000000001020304A7
:081F400006070809000000007B
:0400000508000131BD
:00000001FF
