:020000040800F2
:100000005804002045010008F50A0008A10A00086C
:10001000A30A0008A1040008DD1600080000000083
:100020000000000000000000000000002D0F00088C
:100030006506000800000000AD0B0008CD100008A8
:100040005F0100085F0100085F0100085F01000810
:100050005F0100085F0100085F0100085F01000800
:100060009D0600089F0600085F0100085F01000868
:100070005F0100085F0100085F0100085F010008E0
:100080005F0100085F010008B90100085F01000876
:100090005F0100085F0100085F0100085F010008C0
:1000A0005F0100085F0100085F0100085F010008B0
:1000B000111100085F0100085F0100085F010008DE
:1000C0005F0100085F0100085F0100085F01000890
:1000D0005F0100085F0100085F0100085F01000880
:1000E0005F0100085F0100085F0100085F01000870
:1000F0005F0100085F0100085F0100085F01000860
:100100005F0100085F0100085F0100085F0100084F
:100110005F0100085F010008151100085F01000879
:100120005F0100085F0100085F0100085F0100082F
:10013000DFF80CD000F02EF800480047711B0008D3
:10014000580400200648804706480047FEE7FEE7BF
:10015000FEE7FEE7FEE7FEE7FEE7FEE7FEE7FEE777
:10016000D11000083101000830B50B4601460020CF
:100170002022012409E021FA02F59D4205D303FA69
:1001800002F5491B04FA02F52844151EA2F10102EA
:10019000F1DC30BD064C074D06E0E06840F001039D
:1001A00094E8070098471034AC42F6D3FFF7C4FF39
:1001B0008C1F0008AC1F0008F0B4224A158840F2DA
:1001C0004C44214B01200021A54205D31588B5F5EB
:1001D000166F01D8187000E0197055881B4BA542A6
:1001E00006D3558840F69806B54201D8187000E04D
:1001F00019709588164BA54205D39488B4F5FA6F0B
:1002000001D8187000E01970D48840F69675114B2B
:10021000AC4206D3D48840F6FB75AC4201D81970C5
:100220000AE0D18840F6E444A14205D3D18840F6E3
:10023000AC52914200D81870F0BC4FF408710648D7
:1002400000F06AB808000020000000200100002033
:1002500002000020030000200024014010B52D4CB6
:1002600086B00021204600F065F80021204600F00D
:1002700057F8204600F068F801218DF8081000209A
:100280008DF8091001904FF46021CDE9031004208E
:100290008DF8140001A9204600F090F807230422ED
:1002A0000821204600F0AEF8072303220C21204647
:1002B00000F0A8F8072302220B21204600F0A2F844
:1002C000072301220A21204600F09CF80121204644
:1002D00000F030F801224FF40871204600F064F875
:1002E0000121204600F01CF8204600F0C5F8204609
:1002F00000F053F80028FAD1204600F0CCF8204650
:1003000000F044F80028FAD10121204600F0B9F8A5
:1003100006B010BD002401406FEA11210160704752
:100320000029816802D041F0010101E021F00101C2
:10033000816070470029816802D041F4807101E03A
:1003400021F48071816070470D4910B5884202D157
:10035000012144150AE00B49884202D1012104150C
:1003600004E0094988420AD10121CC03204600F06B
:100370004DFC2046BDE81040002100F047BC10BDF8
:100380000024014000280140003C014001468968EA
:100390000020490700D501207047014689680020E8
:1003A000090700D501207047002A4268C9B201D070
:1003B0000A4300E08A4342607047000030B542685B
:1003C0000E4B0C791A400B6842EA04221343436037
:1003D00082680B4B4D791A40D1E9024342EA45024B
:1003E000234313438360C26A097C22F47002491ECE
:1003F000C9B242EA0151C16230BD0000FFFEF0FF08
:10040000FDF7F1FF70B5072609290AD9C568A1F1E2
:100410000A0404EB4404A640B543A3401D43C56051
:1004200007E0056901EB4104A640B543A3401D4325
:1004300005611F23072A09D2446B521E02EB820278
:1004400093409C4391400C43446370BD0D2A09D2F4
:10045000046BD21F02EB820293409C4391400C43F9
:10046000046370BDC46A0D3A02EB820293409C4360
:1004700091400C43C46270BD816841F00801816005
:1004800070470029816802D041F4A00101E021F405
:10049000A00181607047816841F00401816070476C
:1004A000FEE7000010B58CB01648FFF74DFF164C64
:1004B0000021204600F02CF801A800F0C6F82046E4
:1004C00000F030F80F4804214C3001900F480290A2
:1004D0000020CDE903018021CDE905014900079104
:1004E00089000891202109910902CDE90A1001A98A
:1004F000204600F08DF80121204600F009F80CB0EC
:1005000010BD000000240140080002400800002047
:100510000029016802D041F0010101E021F0010150
:10052000016070470268002122F001020260016050
:1005300041608160C1603449334A0839904203D137
:10054000486840F00F0006E02F4A1432904204D170
:10055000486840F0F000486070472B4A28329042CB
:1005600003D1486840F47060F5E7274A3C32904276
:1005700003D1486840F47040EDE7234A503290427E
:1005800003D1486840F47020E5E71F4A6432904286
:1005900003D1486840F47000DDE71B4A783290428E
:1005A00003D1486840F07060D5E7184A904204D102
:1005B000D1F8040440F00F0007E0144A14329042CE
:1005C00006D1D1F8040440F0F000C1F804047047EB
:1005D0000E4A2832904204D1D1F8040440F47060ED
:1005E000F3E70A4A3C32904204D1D1F8040440F4C3
:1005F0007040EAE7054A50329042E8D1D1F804044D
:1006000040F47020E1E700000800024008040240C6
:1006100070B5026847F6F0739A430D6A8B680C69EF
:100620002B43D1E9056534432343CC692B43234352
:10063000D1E909542B43234313430360CA68426042
:100640000A6882604968C16070BD00210160416034
:100650008160C160016141618161C161016241628A
:10066000816270477047000002494860486800286E
:10067000FCD170470000002010B57D2000F058FC30
:100680000F2000F05FFC4FF4FA70FFF7EDFFBDE8BC
:10069000104000214FF0804000F05BBD7047704774
:1006A00030B51F4A8179036899B311460C6824EA72
:1006B00003040C604B68046823EA04034B6004796C
:1006C00004EB02031C68056844EA05041C608B689F
:1006D000046823EA04038B60CB68046823EA0403FC
:1006E000CB604379A1F58061102B0CD101F58161BC
:1006F0000A68036842EA03020A604A68006842EA3C
:1007000000024A6030BD99180A68006802430A6016
:1007100030BDFFE700791044016899430160F7E7B5
:100720000004014004490A6822F010020A600A68C5
:1007300002430A607047000000200240034A11682B
:1007400001F03801014311607047000000200240B1
:100750002DE9FE4F4FF4806AADF808A004258DF80E
:100760000B5002A97B4800F013F94FF4007BADF861
:1007700008B003248DF80A404FF018088DF80B805C
:1007800002A9744800F004F9C020ADF808008DF803
:100790000A408DF80B8002A96E4800F0F9F8302766
:1007A000ADF808708DF80A4010268DF80B6002A98C
:1007B000684800F0EDF8ADF808708DF80A408DF843
:1007C0000B6002A9634800F0E3F80220ADF80800CE
:1007D0008DF80B508DF80A4002A95F4800F0D8F858
:1007E0004FF00809ADF8089002A95C4800F0D0F875
:1007F000ADF8086002A9594800F0CAF8ADF80850F1
:1008000002A9574800F0C4F80121084600F0ACF8EE
:100810000321022000F0A8F80421022000F0A4F82F
:100820000221032000F0A0F800278DF804701E209C
:100830008DF8059000904FF001098DF806906846FC
:10084000FFF72EFFE002ADF8080048258DF80B50A9
:100850008DF80A4002A93F4800F09AF844F2C0001F
:10086000ADF808008DF80B508DF80A4002A93A48FF
:1008700000F08EF8E020ADF808008DF80B508DF8F0
:100880000A4002A9354800F083F8F002ADF80800EC
:100890008DF80B508DF80A4002A92F4800F078F827
:1008A0007002ADF808008DF80B508DF80A4002A9CF
:1008B000284800F06DF801212A4800F0B9F84CF200
:1008C0000110ADF808008DF80A408DF80B5002A910
:1008D000204800F05DF84FF47060ADF808008DF826
:1008E0000A408DF80B6002A91C4800F051F8012263
:1008F00011021A4800F0CFF801225946174800F0BB
:10090000CAF801225146154800F0C5F80122D1026B
:10091000124800F0C0F80E20ADF808008DF80A402B
:100920008DF80B8002A90B4800F032F8ADF8089062
:100930008DF80B7002A9084800F02AF80720ADF8DE
:1009400008008DF80B7002A9044800F021F8BDE8FA
:10095000FE8F000000080140000C01400010014023
:10096000001401400004300010B58A0721F0030490
:100970000649120F21440F238C6893409C438C60DE
:100980008B68904003438B6010BD00000000014065
:10099000F0B5CB780022DC0603F00F0301D58C788C
:1009A00023430C884FF00F0C14F0FF0F4FF0010E93
:1009B0001AD006680D880EFA02F42540A5420FD120
:1009C00095000CFA05F726EA070703FA05F6CD7835
:1009D0003E43282D01D1446102E0482D00D104613D
:1009E000521C082AE6D306600A88FF2A1ED94668E8
:1009F0005FF0000202F108050EFA05F40D882540AB
:100A0000A5420FD195000CFA05F726EA070703FA6D
:100A100005F6CD783E43282D00D14461CD78482D90
:100A200000D10461521C082AE4D34660F0BD0000E6
:100A3000F0B5144C002801DAE36900E06368450D65
:100A40002E0185B2C0F30157B540C0F30342032F16
:100A500006D123F07062636823F07063636008E07E
:100A6000C60203D503269640B34300E0AB4343F0F0
:100A7000706201B12A43002801DAE261F0BD6260D0
:100A8000F0BD0000000001400246926800200A42CA
:100A900000D0012070470AB1016170474161704781
:100AA000FEE7FEE770B5124C4FF416754FF42F6653
:100AB0002846294600F098FA0520FFF7D5FD618801
:100AC000B142F5D92846294600F08EFA4B20FFF7AF
:100AD000CBFD6FF01300014600F086FA9620FFF779
:100AE000C3FDBDE870400021084600F07DBA00005B
:100AF00008000020704708B54FF4E06000F04CF8A3
:100B000036208DF8000005208DF8010006208DF8B4
:100B1000020000208DF80300684600F00EF8122055
:100B20008DF8000001208DF801008DF802008DF88D
:100B30000300684600F001F808BDF0B50F23C47843
:100B400001784FF0E0220127E4B1D2F80C4D86780D
:100B500004F4E064C4F5E064240AC4F10405E3404D
:100B600044781E40AC4026433301114481F80034E0
:100B70000078410900F01F0002EB81018740C1F8B5
:100B80000071F0BD01F01F008740480902EB8000B2
:100B9000C0F88071F0BD00000249084302490860B6
:100BA000704700000000FA050CED00E070470000FF
:100BB000034A516821F440410143516070470000ED
:100BC00000100240044A0029516901D0014300E0AD
:100BD000814351617047000000100240044A00291F
:100BE000D16901D0014300E08143D1617047000029
:100BF00000100240044A0029916901D0014300E03D
:100C0000814391617047000000100240044A0029AE
:100C1000D16801D0014300E08143D16070470000FA
:100C20000010024010B500F061F84FF48034204607
:100C300000F0F0F800F036F9012825D11020FFF778
:100C400071FD0220FFF77AFD002000F0D9F80020A6
:100C500000F004F9A01100F0F7F86010FFF7A8FF0A
:100C60004FF4E011204600F009F9012000F000F9EE
:100C7000392000F0A5F80028FAD0022000F008F989
:100C800000F0B6F80828FBD101211320FFF7A6FFDA
:100C900001219D20FFF7AEFF01210846FFF792FFDB
:100CA00001214802FFF7A6FF01218803FFF7A2FFF9
:100CB0000C484FF47A710068B0FBF1F0B0F1807F1E
:100CC0000FD220F07F41491E4FF0E0204161064ADB
:100CD000F02111704FF0000181614FF007010161B7
:100CE00010BDFEE72400002023ED00E00C48016861
:100CF00041F00101016041680A4A11404160016808
:100D0000094A11400160016821F4802101604268B4
:100D10004FF41F0122F4FE02426081607047000020
:100D2000001002400000FFF8FFFFF6FE10B5204A59
:100D30005168204B11F00C0103D0042901D008297F
:100D400001D0036011E051685368022401F470116E
:100D500004EB914113F4803F02D053689B0301D50B
:100D6000154B00E0134B594301605168134B01F0E0
:100D7000F00109095C5C0168E1404160546804F4D9
:100D8000E064240A1C5D21FA04F48460546804F4CD
:100D90006054E40A1B5DD940C1605268074B02F4FD
:100DA0004042920B1B1F9A5CB1FBF2F1016110BD36
:100DB0000010024000127A0000093D0014000020DB
:100DC000034600205909094A012901D1116804E0AC
:100DD000022901D1116A00E0516A03F01F020123C8
:100DE00093400B4200D001207047000000100240E9
:100DF0000248406800F00C007047000000100240FC
:100E0000034A516821F0F00101435160704700002E
:100E1000001002400B490A6822F480320A600A6816
:100E2000B0F5803F22F480220A6007D0B0F5802F11
:100E300003D1086840F4A02008607047086840F4B7
:100E40008030F9E700100240034A516821F4E06164
:100E5000014351607047000000100240034A51688E
:100E600021F4605141EAC000506070470010024018
:100E7000014908667047000000004242034B5A686F
:100E8000084322F47C12104358607047001002405F
:100E9000034A516821F0030101435160704700008B
:100EA0000010024030B500244FF4A0653120FFF758
:100EB00087FF641CAC4201D00028F7D03120FFF737
:100EC0007FFF002800D0012030BD00002DE9F04157
:100ED000154F054600244FF48056224631463846C9
:100EE000FFF7D9FD4FF40068002231463846FFF77E
:100EF000D2FD280601D5012200E0002241463846F5
:100F0000FFF7C9FD012231463846FFF7C4FD6806E8
:100F1000050E641C082CE7D331463846BDE8F04185
:100F20000022FFF7B8BD0000000C01407047000030
:100F300003491430C8804FF0804000F0D7B900005A
:100F40004600002003491430C8804FF0804000F074
:100F500055BA000046000020214900200A6842F4EA
:100F600080320A604FF4A0630A68401C12F4003F0C
:100F700001D19842F8D10868800330D51948026839
:100F800042F010020260026822F00302026002686E
:100F900042F0020202604868486048684860486859
:100FA00040F480604860486820F47C1048604868DD
:100FB00040F4E8104860086840F0807008600868F5
:100FC0008001FCD5486820F003004860486840F084
:100FD000020048604868C0F381000228FAD17047D7
:100FE00000100240002002402DE9FF4105460C465A
:100FF0004FF47A704142854201DD054602E08D42A0
:1010000000DA0D46844201DD044602E08C4200DA3B
:101010000C466020ADF800000120ADF80200002071
:10102000DFF8A080284EADF8080044F62067002DB8
:101030000ADD012220214046FFF72DFD684200EB2A
:10104000800007EB800008E06D420022202140462E
:10105000FFF721FD05EB85008000ADF8060069462D
:10106000304600F043F9002C08DD002210214046F4
:10107000FFF711FD04EB840080000AE064420122C6
:1010800010214046FFF707FD604200EB800007EBB0
:101090008000ADF806006946304600F0E1F808210E
:1010A000304600F01DF90821304600F05DF90121BD
:1010B000304600F041F80121304600F04AF8BDE822
:1010C000FF810000000801400004004000F01CBA4D
:1010D0000C48016841F00101016041680A4A114071
:1010E00041600168094A11400160016821F48021D2
:1010F0000160416821F4FE0141604FF41F018160ED
:10110000FFF72ABF001002400000FFF8FFFFF6FEC5
:101110007047000010B5074C0121204600F08CF804
:10112000012805D12046BDE81040012100F00EB88D
:1011300010BD0000001000400029018802D041F0DD
:10114000800101E021F0800101807047C9430182E4
:1011500070470029018802D041F0010101E021F02F
:1011600001010180704700002DE9F0412F4C44F649
:101170002060A080142626800025E5806580214619
:101180002B4800F073F946F2A810A08026800220B8
:10119000E080284E65802146304600F067F9012145
:1011A0003046FFF7C9FF01221146304600F050F8E3
:1011B00001213046FFF7CDFF40F23550A08040F2CC
:1011C00091402080E580870765802146384600F001
:1011D0004DF90A34602020800120608040F2EE2624
:1011E000E68025812146384600F080F808213846FF
:1011F00000F0BAF8E6802146384600F0BDF8082134
:10120000384600F0F5F8E6802146384600F0F6F85A
:101210000821384600F022F901213846FFF78CFFFB
:101220003846BDE8F0410121FFF793BF3C000020A4
:1012300000040040001000400246138A00209289FA
:101240000B4202EA010202D0002A00D001207047BE
:10125000002A828901D00A4300E08A4382817047D4
:10126000F0B5028C22F001020284048C8288038B88
:1012700024F0020523F073060B880C8933434E8853
:10128000124F2C432643B8420BD0114CA04208D039
:10129000104CA04205D0104CA04202D00F4CA042EE
:1012A0000DD126F008044D898E88254325F00405CC
:1012B0002E4322F440748D89CA8925432A438280B3
:1012C0000383C98881860684F0BD0000002C01409C
:1012D000003401400040014000440140004801400A
:1012E000028B22F008020A430283704730B5028C59
:1012F00022F010020284028C8388048B22F02002E8
:1013000024F4E6450C88240645EA14440D892D058D
:1013100042EA15454A88120545EA1242104DA84294
:1013200002D0104DA84215D14D8922F080022D0522
:1013300042EA15458A8825F04005120545EA124221
:101340008D8923F44063AD0443EA1545CB899B04A2
:1013500045EA134383800483C9880187028430BD32
:10136000002C014000340140028B22F4006242EA6A
:10137000012101837047000070B5028C22F4807255
:101380000284028C8388848B0E8924F073050C8878
:1013900022F400722C43350642EA15454A881206AB
:1013A00045EA1242104DA84202D0104DA84215D174
:1013B0004D8922F400622D0642EA15458A8825F4FB
:1013C0008065120645EA12428D8923F440532D05AB
:1013D00043EA1545CB891B0545EA13438380848383
:1013E000C9888187028470BD002C0140003401400F
:1013F000828B22F008020A438283704730B5028C48
:1014000022F480520284038C8288848B24F4E64583
:101410000C88240645EA144423F400550B891B0765
:1014200045EA13434D882D0743EA1545094B984279
:1014300002D0094B984205D122F480438A89920553
:1014400043EA124282808483C988A0F84010058450
:1014500030BD0000002C014000340140828B22F49A
:10146000006242EA012181837047000030B50288A2
:101470001B4C1C4DA0420DD0A8420BD0B0F1804FA8
:1014800008D0194B984205D0184B984202D0184BFF
:10149000984203D122F070034A881A43154B9842B0
:1014A00006D0154B984203D022F44073CA881A43E1
:1014B00002808A88A04282850A8802850AD0A842D2
:1014C00008D00E4A904205D00D4A904202D00D4AF3
:1014D000904201D1097A01860121818230BD00004C
:1014E000002C01400034014000040040000800408E
:1014F000000C00400010004000140040004001407B
:10150000004401400048014003484168002902D0DE
:101510004168491E416070470000002070B50021FD
:101520000846FFF761FD4FF448714842FFF75CFD44
:10153000C820FFF799F84FF41674654221462846F3
:10154000FFF752FD0120FFF78FF800F0FBFB0328A7
:10155000F4D16FF04F015020FFF746FD6420FFF7F4
:1015600083F8BDE8704000210846FFF73DBD00004C
:1015700070B500210846FFF737FD11494842FFF7D3
:1015800033FDC820FFF770F80D4CC8346542214682
:101590002846FFF729FD0120FFF766F800F0D2FB8F
:1015A000C01CF4D150214842FFF71EFD6420FFF714
:1015B0005BF8BDE8704000210846FFF715BD00004C
:1015C000E0FCFFFF1FB54FF4165000900020ADF86F
:1015D0000400ADF80600ADF80800ADF80C000C20D2
:1015E000054CADF80A006946204600F019F80121C3
:1015F000204600F003F81FBD003801400029818912
:1016000002D041F4005101E021F400518181704782
:101610000246128800200A4200D0012070470000D4
:1016200030B50446008A85B00D464CF6FF7108407F
:10163000E98801432182A0894EF6F3110840A98868
:101640002A8911436A8902431143A181A08A4FF676
:10165000FF410840A9890143A1826846FFF766FB64
:101660001B48844201D1039800E00298A189090433
:10167000002900EBC00101EB0010296802DA4FEAF3
:10168000410101E04FEA8101B0FBF1F06422B0FBBF
:10169000F2F14FEA01114FEA11136FF018056B4395
:1016A000A58900EB83004FF032032D0406D503EB30
:1016B000C000B0FBF2F000F0070005E003EB001003
:1016C000B0FBF2F000F00F000843208105B030BD00
:1016D00000380140C1F3080181807047FEE7000037
:1016E0000FB410B503A9044B044A029800F018F88F
:1016F00010BC5DF814FB00007518000838000020CD
:1017000002E008C8121F08C1002AFAD170477047CA
:10171000002001E001C1121F002AFBD17047000028
:101720002DE9FF4F89B004469A46002593E025280D
:101730006FD10027641C4E4AB84601212378203B14
:1017400001FA03F0104202D00743641CF6E7207848
:101750002E281AD114F8010F47F004072A280DD1BA
:101760000A98641C50F8048B0A900EE008EB88007D
:1017700002EB400001EB0008641C01E06FF02F0257
:101780002178A1F130000928F0D92078002866D00E
:10179000642809D0692807D0752864D10A994FF0C8
:1017A0000A0901C90A9116E00A994FF00A0901C90C
:1017B0000A91002804DAC0F100004FF02D0102E088
:1017C000390504D52B218DF80010012104E0F9071B
:1017D00001D02021F7E700218B4609AE06E04946FB
:1017E000FEF7C2FC01F1300106F8011D0028F6D118
:1017F00001A8A0EB060000F12009780701D44FF002
:1018000001080020C84501DDA8EB0900804600273B
:1018100007E028E01DF8070052460B9990476D1C21
:101820007F1C5F45F6DB04E0302052460B99904761
:101830006D1CB8F10000A8F10108F5DC05E016F810
:10184000010B52460B9990476D1CB9F10000A9F1AC
:101850000109F4DC641C207800287FF468AF284676
:101860000DB0BDE8F08F52460B9990476D1CF1E723
:101870000928010070B5074D0446C1B22846FFF79C
:1018800029FF40212846FFF7C3FE0028F9D0204653
:1018900070BD0000003801402DE9F84F01210820FB
:1018A000FFF7A8F903248DF802401025DFF850B1A6
:1018B0008DF803504FF48078ADF8008069465846A3
:1018C000FFF766F801210820FFF794F98DF8024030
:1018D0008DF803506F01ADF8007069465846FFF768
:1018E00057F801210820FFF785F98DF802408DF89F
:1018F00003504FF4806AADF800A069465846FFF7E0
:1019000047F801210820FFF775F98DF802408DF89E
:1019100003504FF40059ADF8009069465846FFF760
:1019200037F801210820FFF765F98DF802408DF89E
:1019300003502E02ADF8006069465846FFF728F8BC
:1019400001210820FFF756F98DF802408DF8035069
:10195000E801ADF8000069465846FFF719F8002283
:1019600031465846FFF797F8002239465846FFF7A8
:1019700092F8012239465846FFF78DF80122514668
:101980005846FFF788F8012249465846FFF783F882
:10199000002241465846FFF77EF800F083F800F039
:1019A00063F80021084600F070F80E2115A000F041
:1019B0009DF80E2117A000F099F80E2119A000F053
:1019C00095F80E211BA000F091F80E211DA000F04B
:1019D0008DF80E211FA000F089F8002249465846D4
:1019E000FFF759F81F48401EFDD100F03DF800F008
:1019F0003BF84CF25030401EFDD1BDE8F88F00009E
:101A0000000C01402020524F424F5420434C55427D
:101A1000202000002020454E47494E454552494E62
:101A20004720000020202020694E65787573202013
:101A30002020000041726520796F75205265616435
:101A4000793F000057652077696C6C20676F7420C0
:101A500069740000476F20476F20476F20476F2051
:101A6000476F000080841E0070B50024802000F0C5
:101A700061F8402000F05EF84FF4FC75002000F0A3
:101A800069F8641CAC42F9D370BD10B580300C46C7
:101A9000C0B200F04FF84034E0B2BDE8104000F0B2
:101AA00049B8000070B5104D4FF400740022214673
:101AB0002846FEF7F0FF012221462846FEF7EBFFFD
:101AC000212000F037F8A62000F034F8072000F0BD
:101AD00031F8132000F02EF8202000F02BF8BDE89C
:101AE00070400C2000F026B8000C014070B505468F
:101AF0000E46002404E0285D00F006F8641CE4B201
:101B0000B442F8D370BD000070B500242038084EF0
:101B100000EB8005705D00F01DF8641CE4B26D1CE4
:101B2000052CF7D3BDE87040002000F013B800008A
:101B3000B01D000810B5044600224FF4806104482F
:101B4000FEF7A9FF2046BDE81040FFF7BFB900002F
:101B5000000C014010B50446012291020348FEF733
:101B60009AFF2046BDE81040FFF7B0B9000C0140D5
:101B70002DE9F84FFFF756F8FEF7EAFD5C4D4FF4FC
:101B80008074002221462846FEF785FF6600002269
:101B900031462846FEF77FFFA70000223946284637
:101BA000FEF779FF4FF4006A002251462846FEF7FF
:101BB00072FFFFF707FDFFF7D7FAFEF773FCFEF79A
:101BC0004DFBFFF769FE4BA0FFF78AFDFEF793FF81
:101BD000FEF752FD012221462846FEF75CFF012256
:101BE00031462846FEF757FF012239462846FEF7C0
:101BF00052FF012251462846FEF74DFFD346DFF83B
:101C00001081BA46434FA8F1080900BFB8F8063062
:101C10000093B8F80430B8F80220B8F800103EA0DD
:101C2000FFF75EFD99F80330009399F8023099F8B8
:101C3000012099F800103EA0FFF752FD012138461F
:101C4000FEF722FF58B9002259462846FEF723FF27
:101C50004FF4FA70FEF708FDFFF760FC04E0012284
:101C600059462846FEF717FF21463846FEF70CFF77
:101C700058B9002251462846FEF70DFF4FF4FA707E
:101C8000FEF7F2FCFFF774FC04E0012251462846FF
:101C9000FEF701FF4FF400413846FEF7F5FE58B954
:101CA000002231462846FEF7F6FE4FF4FA70FEF7A2
:101CB000DBFCFEF7F7FE04E0012231462846FEF782
:101CC000EAFE4FF480413846FEF7DEFE50B90022AE
:101CD00021462846FEF7DFFE4FF4FA70FEF7C4FCFB
:101CE000002200E0012221462846FEF7D4FE8DE7BF
:101CF000001001400A0A0D694E6578757320526F15
:101D0000626F7420436F6E74657374200A0D000057
:101D10000800002000080140202564202C202564B4
:101D2000202C202564202C202564203A3A3A3A00C1
:101D30002564202C2564202C202564202C2025645B
:101D4000200A0D0070B5184E00244FF40061304693
:101D5000FEF79AFE0546B1143046FEF795FE134E87
:101D600005EB400540213046FEF78EFE05EB800571
:101D700080213046FEF788FE05EBC0054FF4804118
:101D80003046FEF781FE05EB0010C0B2092809D0ED
:101D90001F2801D1642405E0411E102902D8C0F19A
:101DA000090044B2204670BD00080140000C01400B
:101DB000000000000000002F0000000700070014D2
:101DC0007F147F14242A7F2A126264081323364961
:101DD0005522500005030000001C22410000412252
:101DE0001C0014083E081408083E08080000A06003
:101DF00000080808080800606000002010080402BD
:101E00003E5149453E00427F4000426151494621D2
:101E100041454B311814127F1027454545393C4A3E
:101E2000494930017109050336494949360649498E
:101E3000291E0036360000005636000008142241E4
:101E4000001414141414004122140802015109064C
:101E5000324959513E7C1211127C7F494949363E24
:101E6000414141227F4141221C7F494949417F092B
:101E70000909013E4149497A7F0808087F00417FEE
:101E800041002040413F017F081422417F404040F3
:101E9000407F020C027F7F0408107F3E4141413E9B
:101EA0007F090909063E4151215E7F0919294646ED
:101EB0004949493101017F01013F4040403F1F2016
:101EC00040201F3F4038403F6314081463070870E8
:101ED00008076151494543007F414100552A552A71
:101EE000550041417F00040201020440404040404F
:101EF000000102040020545454787F484444383888
:101F000044444420384444487F3854545418087E8C
:101F100009010218A4A4A47C7F0804047800447D6D
:101F200040004080847D007F1028440000417F40B5
:101F3000007C041804787C0804047838444444384D
:101F4000FC2424241818242418FC7C0804040848C1
:101F500054545420043F4440203C4040207C1C20EA
:101F600040201C3C4030403C44281028441CA0A089
:101F7000A07C4464544C44000836410000007F00BB
:101F8000000041360800081008040800AC1F0008D3
:101F9000000000203C00000000170008E81F0008B7
:101FA0003C0000201C040000101700080000000086
:101FB000000000000000000000000000020406080D
:101FC00000000000010203040102030406070809DF
:101FD00000A24A0400000000000000000102030407
:081FE0000607080900000000DB
:0400000508000131BD
:00000001FF
